:1000000010C100003CC100003AC1000038C100002E
:1000100036C1000034C1000032C1000030C1000010
:100020002EC100002CC100002AC1000028C1000020
:1000300026C1000024C1000022C1000020C1000030
:100040001EC100001CC100001AC1000018C1000040
:1000500016C1000014C1000012C100008EC30000D0
:100060000EC1000054C3000029C3000008C10000F5
:1000700006C1000004C1000002C1000000C1000070
:10008000FEC00000FCC00000FAC00000F8C0000084
:10009000F6C00000F4C00000F2C00000F0C0000094
:1000A000EEC00000ECC00000EAC00000E8C00000A4
:1000B000E6C00000E4C00000E2C00000E0C00000B4
:1000C000DEC00000DCC00000DAC00000D8C00000C4
:1000D000D6C00000D4C00000D2C00000D0C00000D4
:1000E000CEC00000D402D702C602CA02CE020E035E
:1000F000DB02DF02E502E902ED02F302F702FB0296
:100100000E03010305030903E104E404E704EA0420
:10011000ED04F004F304F604F90400000A0B0209EC
:100120000C0D0E0807030401000000000000000091
:1001300000000000000000000000000000000000BF
:10014000000000000000121110000000000000007C
:10015000000000000000000000000000000000009F
:1001600000002200250028002B002E003100340062
:1001700002010000050108010B010000210024001C
:1001800027002A002D003000330001010000040187
:1001900007010A0105050505070508080808020208
:1001A00002020A0A08080404040401010101010111
:1001B00001010303030303030303040707070C0CF4
:1001C0000C0C0C0C0C0C02020202060606060606BB
:1001D00006060B0B0B0B0B0B0B0B01021020200860
:1001E0000810204010204080020102010804020192
:1001F0000102040810204080804020100804020101
:100200008004020180402010080402010804020159
:1002100001020408102040800102040810204080E0
:10022000020511241FBECFEFD1E2DEBFCDBF00E03B
:100230000CBF12E0A0E0B2E0EAE7FAE000E00BBF9A
:1002400002C007900D92A032B107D9F722E0A0E2D8
:10025000B2E001C01D92A63CB207E1F711E0C1E196
:10026000D1E000E005C021970109802FFE01F7D3FE
:10027000C031D10780E00807B1F7C9D2FCC3C0CEB6
:10028000CF92DF92EF92FF920F931F93CF93DF9362
:100290006C017A018B01C0E0D0E0CE15DF0589F05A
:1002A000D8016D918D01D601ED91FC910190F08105
:1002B000E02DC6011995892B11F47E0102C021960B
:1002C000ECCFC701DF91CF911F910F91FF90EF907D
:1002D000DF90CF900895089580E090E00895FC01AC
:1002E000538D448D252F30E0842F90E0821B930B9B
:1002F000541710F0CF96089501970895FC01918D41
:10030000828D981761F0828DDF01A80FB11D5D9677
:100310008C91928D9F5F9F73928F90E008958FEFE5
:100320009FEF0895FC01918D828D981731F0828D99
:10033000E80FF11D858D90E008958FEF9FEF0895F0
:10034000FC01918D228D892F90E0805C9F4F821B54
:1003500091098F739927089589E292E0F1DF21E0F6
:10036000892B09F420E0822F0895FC01848DDF01A0
:10037000A80FB11DA35ABF4F2C91848D90E0019618
:100380008F739927848FA689B7892C93A089B18907
:100390008C9180648C93938D848D981306C0028811
:1003A000F389E02D80818F7D80830895EF92FF9205
:1003B0000F931F93CF93DF93EC0181E0888F9B8D88
:1003C0008C8D981305C0E889F989808185FD23C04B
:1003D000F62E0B8D10E00F5F1F4F0F731127E02ECD
:1003E0008C8DE8120BC00FB607FCFACFE889F989AB
:1003F000808185FFF5CFCE01B8DFF2CF8B8DFE0176
:10040000E80FF11DE35AFF4FF0820B8FEA89FB8959
:100410008081806207C0EE89FF896083E889F9895D
:1004200080818064808381E090E0DF91CF911F9193
:100430000F91FF90EF900895CF93DF93EC01888D9B
:100440008823C1F0EA89FB89808185FD05C0A889E0
:10045000B9898C9186FD0EC00FB607FCF5CF80815F
:1004600085FFF2CFA889B9898C9185FFEDCFCE01A8
:100470007CDFE8CFDF91CF91089580E090E0892B79
:1004800019F06ADF811125C080E090E0892B41F0EE
:1004900080E090E0892B21F00E94000081111CC0B7
:1004A00080E090E0892B41F080E090E0892B21F002
:1004B0000E940000811113C080E090E0892BA1F020
:1004C00080E090E0892B81F00E94000081110AC039
:1004D00008950E940000D8CF0E940000E1CF0E9442
:1004E0000000EACF0C94000008953FB7F894809183
:1004F000250290912602A0912702B091280226B5EC
:10050000A89B05C02F3F19F00196A11DB11D3FBF4B
:10051000BA2FA92F982F8827820F911DA11DB11DD9
:10052000BC01CD0142E0660F771F881F991F4A95D5
:10053000D1F708958F929F92AF92BF92CF92DF92A0
:10054000EF92FF92CF93DC0120E030E0C9010296E8
:10055000FC01E65EFE4F4491FC01E652FE4FC49161
:10056000FC01EC56FE4F9491992309F472C0442388
:1005700009F454C050E0FA013197E231F10508F076
:100580004DC08827EE58FF4F8F4F69C28091800081
:100590008F7707C0809180008F7D03C0809180009D
:1005A000877F809380003AC084B58F7702C084B57E
:1005B0008F7D84BD33C08091B0008F7703C0809160
:1005C000B0008F7D8093B00029C0809190008F771C
:1005D00007C0809190008F7D03C080919000877F3D
:1005E000809390001BC08091A0008F7707C08091FE
:1005F000A0008F7D03C08091A000877F8093A00022
:100600000DC0809120018F7707C0809120018F7DE0
:1006100003C080912001877F80932001E92FF0E0C3
:10062000EE0FFF1FE05AFE4F859194914FB7F8945B
:10063000BD01022E02C0759567950A94E2F7FC0190
:10064000508160FD03C0C095C52301C0C52BC08388
:100650004FBF2F5F3F4F2730310509F077CF45DF80
:100660004B015C0184E6C82ED12CE12CF12C3DDF3E
:10067000DC01CB0188199909AA09BB09883E93407E
:10068000A105B10558F0F1E0CF1AD108E108F10851
:1006900028EE820E23E0921EA11CB11CC114D104CD
:1006A000E104F10421F7CF91FF90EF90DF90CF901C
:1006B000BF90AF909F908F900895D9D11F920F92C5
:1006C0000FB60F9211240BB60F922F933F934F93B7
:1006D0005F936F937F938F939F93AF93BF93EF93AA
:1006E000FF9389E292E041DEFF91EF91BF91AF91DC
:1006F0009F918F917F916F915F914F913F912F913A
:100700000F900BBE0F900FBE0F901F9018951F9269
:100710000F920FB60F9211240BB60F922F938F9357
:100720009F93EF93FF93E0913902F0913A02808119
:10073000E0913F02F091400282FD12C090818091D1
:1007400042028F5F8F7320914302821751F0E09134
:100750004202F0E0E75DFD4F958F8093420201C0B9
:100760008081FF91EF919F918F912F910F900BBE00
:100770000F900FBE0F901F9018951F920F920FB6FB
:100780000F9211242F933F938F939F93AF93BF9317
:100790008091210290912202A0912302B091240223
:1007A0003091200223E0230F2D3720F40196A11D64
:1007B000B11D05C026E8230F0296A11DB11D20938F
:1007C00020028093210290932202A0932302B093EF
:1007D00024028091250290912602A0912702B091D7
:1007E00028020196A11DB11D809325029093260237
:1007F000A0932702B0932802BF91AF919F918F9150
:100800003F912F910F900FBE0F901F9018957894E5
:1008100084B5826084BD84B5816084BD85B5826005
:1008200085BD85B5816085BD80916E0081608093B6
:100830006E0010928100809181008260809381001F
:10084000809181008160809381008091800081602F
:10085000809380008091B10084608093B10080918A
:10086000B00081608093B00080919100826080939D
:10087000910080919100816080939100809190001F
:100880008160809390008091A10082608093A1009C
:100890008091A10081608093A1008091A00081607F
:1008A0008093A0008091210182608093210180913A
:1008B00021018160809321018091200181608093DA
:1008C000200180917A00846080937A0080917A0080
:1008D000826080937A0080917A00816080937A00B0
:1008E00080917A00806880937A001092C100E09134
:1008F0003902F0913A0282E08083E0913502F09172
:1009000036021082E0913702F09138028FEC80833A
:1009100010924102E0913D02F0913E0286E0808318
:10092000E0913B02F0913C02808180618083E09104
:100930003B02F0913C02808188608083E0913B0221
:10094000F0913C02808180688083E0913B02F091CD
:100950003C0280818F7D8083A2E1B2E08D919D91E8
:100960009927FC01E652FE4F2491FC01EC56FE4F04
:100970008491882399F090E0880F991FFC01E65834
:10098000FE4FC591D491FC01E05AFE4F85919491A0
:100990008FB7F894E881E22BE8838FBF82E0A03222
:1009A000B807E1F6C0E0D0E0FE013197E930F1058B
:1009B00028F48827EC57FF4F8F4F51C08EE790E007
:1009C0001AC080E390E017C08DE690E014C089E77C
:1009D00090E011C083E390E00EC08BE590E00BC087
:1009E0008FE590E008C080E790E005C08FE790E0D9
:1009F00002C08BE790E09EDD2196CA30D105A1F6BA
:100A00003CDDD0CFE9E2F2E01382128288EE93E07F
:100A1000A0E0B0E084839583A683B78384E092E06E
:100A20009183808385EC90E09587848784EC90E0C7
:100A30009787868780EC90E0918B808B81EC90E0AB
:100A4000938B828B82EC90E0958B848B86EC90E08C
:100A5000978B868B118E128E138E148E0895EE0F47
:100A6000FF1F881F8BBF0790F691E02D199481E03E
:0A0A700090E0F89400C0F894FFCF66
:100A7A0000000000D60140016F011C02A0017E01A6
:100A8A0092010200030004000500060007000800A6
:00000001FF
